:020000040000fa
:080000000002040000000000f2
:020000040000fa
:100008009a0200009a0200009a0200009a02000078
:100018009a0200009a0200009a0200009a02000068
:100028009a0200009a0200009a0200009a02000058
:100038009a0200009a0200009a0200009a02000048
:100048009a0200009a0200009a0200009a02000038
:100058009a0200009a0200009a0200009a02000028
:100068009a0200009a0200009a0200009a02000018
:100078009a0200009a0200009a0200009a02000008
:100088009a0200009a0200009a0200009a020000f8
:100098009a0200009a0200009a0200009a020000e8
:1000a8009a0200009a0200009a0200009a020000d8
:1000b8009a0200009a0200009a0200009a020000c8
:1000c8009a0200009a0200009a0200009a020000b8
:1000d8009a0200009a0200009a0200009a020000a8
:1000e8009a0200009a0200009a0200009a02000098
:1000f8009a0200009a0200009a0200009a02000088
:100108009a0200009a0200009a0200009a02000077
:100118009a0200009a0200009a0200009a02000067
:100128009a0200009a0200009a0200009a02000057
:100138009a0200009a0200009a0200009a02000047
:100148009a0200009a0200009a0200009a02000037
:100158009a0200009a0200009a0200009a02000027
:100168009a0200009a0200009a0200009a02000017
:100178009a0200009a020000e21e00009a020000a3
:100188009a0200009a0200009a0200009a020000f7
:100198009a0200009a0200009a0200009a020000e7
:1001a8009a0200009a0200009a0200009a020000d7
:1001b8009a0200009a0200009a0200009a020000c7
:1001c8009a0200009a0200009a0200009a020000b7
:1001d8009a0200009a0200009a0200009a020000a7
:1001e8009a0200009a0200009a0200009a02000097
:0801f8009a0200009a020000c7
:020000040000fa
:100208009a0200009a0200009a0200009a02000076
:100218009a0200009a0200009a0200009a02000066
:100228009a0200009a0200009a0200009a02000056
:100238009a0200009a0200009a0200009a02000046
:100248009a0200009a0200009a0200009a02000036
:100258009a0200009a0200009a0200009a02000026
:100268009a0200009a0200009a0200009a02000016
:100278009a0200009a0200009a0200009a02000006
:100288009a0200009a0200009a0200009a020000f6
:100298009a0200009a0200009a0200009a020000e6
:1002a8009a0200009a0200009a0200009a020000d6
:1002b8009a0200009a0200009a0200009a020000c6
:1002c8009a0200009a0200009a0200009a020000b6
:1002d8009a0200009a0200009a0200009a020000a6
:1002e8009a0200009a0200009a0200009a02000096
:1002f8009a0200009a0200009a0200009a02000086
:100308009a0200009a0200009a0200009a02000075
:100318009a0200009a0200009a0200009a02000065
:100328009a0200009a0200009a0200009a02000055
:100338009a0200009a0200009a0200009a02000045
:100348009a0200009a0200009a0200009a02000035
:100358009a0200009a0200009a0200009a02000025
:100368009a0200009a0200009a0200009a02000015
:100378009a0200009a020000e21e00009a020000a1
:100388009a0200009a0200009a0200009a020000f5
:100398009a0200009a0200009a0200009a020000e5
:1003a8009a0200009a0200009a0200009a020000d5
:1003b8009a0200009a0200009a0200009a020000c5
:1003c8009a0200009a0200009a0200009a020000b5
:1003d8009a0200009a0200009a0200009a020000a5
:1003e8009a0200009a0200009a0200009a02000095
:0803f8009a0200009a020000c5
:020000040000fa
:100400000fa220000e7f22000e01880000000000d5
:10041000000020000000e000020032000001200087
:10042000200288000c00070060f02100010020007d
:1004300011000700000020000000e0000200320070
:1004400000000200000000002c1f0200000000005d
:100450000040da000000fe004440a900800c2000ab
:100460000000e0000300320000002000a00188002e
:100470004440a80000000600910188008000780038
:100480000000eb0015003700e280400032a0b4000d
:100490009101ba00e280400032a0b4009102ba009b
:1004a000e280400032a0b4000002eb00472bde00e7
:1004b000f507b200602ce10004003a000059eb009f
:1004c0008301e900fdff3e00040037006128e100e0
:1004d000010032000082eb00040007001101ba00a5
:1004e0000200e000e8ff3a00000006003159ba00bf
:1004f0008301e9000c0032002159ba008301e900b0
:10050000080032000400e00003003a00e2804000ee
:1005100032a0b400f5ff370011d9ba008301e90019
:10052000faff3a008100e800e180400032a0b40008
:10053000000006000040da000000fe000002780023
:1005400002003700315a78000201e900e00f510043
:10055000fcff3a00000006000002780002003700ad
:10056000015a78000201e900e00f5100fcff3a0057
:040570000000060081
:020000040000fa
:10057400120100000002000000000000000800005a
:10058400d80400003f000000000100000102000048
:100594000001000009020000290000000101000020
:1005a40000c0000032090000040000000002000046
:1005b40003000000000000000921000011010000f8
:1005c40000010000221d000000070000058100005a
:1005d40003400000000100000705000001030000c3
:1005e40040000000010000000403000009040000b2
:1005f400340300004d0000006900000063000000a7
:10060400720000006f00000063000000680000003a
:100614006900000070000000200000005400000089
:100624006500000063000000680000006e00000028
:100634006f0000006c0000006f0000006700000005
:100644007900000020000000490000006e00000056
:10065400630000002e0000002e0300005000000084
:1006640049000000430000002d0000005500000078
:1006740053000000420000002d000000490000006b
:100684004f0000002d000000480000004900000059
:100694004400000020000000300000003100000091
:1006a4003600000030000000380000003000000078
:1006b4003100000006000000ff09000001a1000055
:1006c4000119000001290000401500000026000067
:1006d400ff00000075080000954000008100000044
:1006e400190100002940000091000000c000000032
:1006f400cc820000f6820000fa8200002e83000003
:020000040000fa
:100704000200fa009ec0a9000082eb007424880055
:100714000082eb00542488000002eb00542588007a
:10072400220020008000eb00c04a200089ff07005f
:1007340024002000342588000002eb0044258800b2
:100744008644a900f409200084248800f4092000c8
:100754006424880082c4a8008804a80004a020009f
:100764004822de00c42488000042eb00044f7800d5
:10077400080037009e4278000582fb00c222dd009b
:1007840004a02000048342006022b800048bbe0051
:100794001e4fe8001e427800e74f5200f5ff360076
:1007a4009424a8000002eb00b424880094a4a900b7
:1007b4009424a90084002000542488000042eb0003
:1007c4000002fd0098e8b7000002fd000042eb00c3
:1007d4000002fd009ee8b7000002fd00f48920003d
:1007e40014427800604262000002fd009fe8b700f6
:1007f4000002fd00048a2000144278006042620076
:100804000002fd00a0e8b7000002fd0054248000af
:1008140068026200e00f5200e6ff3a0014c0b30021
:100824000002fd00b1e8b7000002fd0014c0b300ef
:100834000002fd00b2e8b7000002fd000042eb0038
:100844000002fd00b3e8b7000002fd000042eb0027
:100854000002fd00b4e8b7000002fd000042eb0016
:100864000002fd00a7e8b7000002fd000042eb0013
:10087400044f78001b0037009e4278000582fb007d
:100884008402420004892000048242008002eb00ba
:10089400050a78009e4278000582fb00840242002b
:1008a400c4882000048242008002eb00050a78001c
:1008b4001e4278008482fb00b48a200084824200b5
:1008c4000042eb00844a78001e4278008482fb00d8
:1008d400d48a2000848242000042eb00844a7800db
:1008e4001e4fe8001e427800e14f5200e2ff36003e
:1008f40084a0200084448800d4002000542588006b
:10090400b48b20001450880084c0b3000400780025
:1009140000eab70044c0b3000400780001eab7005d
:1009240015a020009542780004c8b30004c27200e8
:100934000400780001eab7000042eb0004007800ec
:1009440086e8b7006022b800b4458800c545880031
:100954000042eb0004007800bae8b7000002eb00a4
:10096400244488000080fa00000006000200fa0017
:1009740024448000e10f52000b003a00a5248000bb
:100984000404200004826200e00f520006003a00d2
:100994000082eb00542488008c04a8008c84a800f6
:1009a4002400200024448800042480007002620093
:1009b400e00f52000700320014248000700262002d
:1009c400e00f5200030032000401200004248800d8
:1009d400540507004424800062026200e00f5200c4
:1009e400020032008ec0a900b100370054248000f8
:1009f40061026200e00f52000a00320064248000a9
:100a040061026200e00f5200060032003cff070062
:100a14009ec0a80044002000244488001400200044
:100a2400542488005424800070026200e00f5200b5
:100a3400050032006424800070026200e00f52005e
:100a4400010032002705070005248000040420006b
:100a540004826200e00f520003003200040420000c
:100a640004248800b4070700542480006402620050
:100a7400e00f520019003200642480006402620016
:100a8400e00f520004003200120020008000eb004e
:100a940030072000470c070044002000542488003d
:100aa400f48a200014427800e04f5200060032001d
:100ab400f48a2000144278000442e9000002fd0098
:100ac400afe8b7000002fd00f48a20001442780069
:100ad400e04f520001003a00bf0107005524800096
:100ae4000408200004826200e00f52000600320075
:100af400652480000408200004826200e00f520094
:100b040001003200da04070054248000620262000b
:100b1400e00f52000c003200642480006202620084
:100b2400e00f520008003200120020008000eb00a9
:100b3400f0ff27001f0c07000082eb0074248800dc
:100b4400240020005424880024448000e30f520031
:100b540002003e008ec0a9005500370064248000c6
:100b640068026200e00f5200500032000042eb00c5
:100b7400044f780048003700542480006802620063
:100b8400e00f5200480032009424800004427800b0
:100b94000002fd00a8e8b7000002fd00848a2000de
:100ba400144278000482fb004422de0004427800f0
:100bb4000002fd00a9e8b7000002fd008400200047
:100bc40054248800848a2000144278006842620019
:100bd400e04f520013003a00948a20001442780037
:100be4000483fb008482fb00d48a20000482420038
:100bf4009442780061c262000404a200614262006f
:100c0400d58a2000850343006142620017437800bf
:100c1400e5cfb3008542630004c27200844b7800c0
:100c240012003700948a2000144278000483fb00e9
:100c34008482fb00b48a200004824200944278003b
:100c440061c262000404a20061426200b58a20000d
:100c5400850343006142620017437800e5cfb30087
:100c64008542630004c27200844b7800948a200099
:100c740014427800e04f520002003a00b904070021
:100c8400040037000001eb00818a200020072000c7
:100c9400c80b07001e4fe8001e427800e34f5200c5
:100ca400b5ff360001003700000000008ec0a90027
:100cb4000080fa00000006000400fa0020479800b3
:100cc400314798003e4290000482fb0068026200b3
:100cd400e00f5200030032008040eb002e409000f1
:100ce400ca0107003e4290000482fb0064026200d5
:100cf400e00f52000300320011c0b3002e409000f8
:100d0400c2010700a54a20002e4290000482fb0085
:100d140004024200048f42001e027800be4290008a
:100d2400054a78000080fa00000006000800fa0076
:100d3400204798003147980022079800634798009d
:100d44003e429000e04f5200070032002e429000d5
:100d54000482fb00840242000489200004824200d1
:100d6400140f7800060037002e4290000482fb0026
:100d740084024200c488200004824200140f7800d8
:100d84001e027800e00f520002003a000002eb005d
:100d940037003700ae0290001e027800150298005a
:100da4001e027800ee429000054a78001e02780088
:100db400144290000444b2009e02780094429800c9
:100dc4001e027800144290000434a0009e027800b1
:100dd400944298001e0278009442900004c8b30024
:100de40004c272009e027800944298003e42900031
:100df400e04f52000f0032002e4290008482fb002c
:100e04002e4290000482fb00040342000489200067
:100e140004024300140278000420a20004037800b2
:100e2400858242000489200004824200060a780078
:100e34000e0037002e4290008482fb002e42900068
:100e44000482fb0004034200c4882000040243001f
:100e5400140278000420a200040378008582420072
:100e6400c488200004824200060a78001e0278002a
:100e7400040078000080fa00000006000400fa0074
:100e840020479800314798002e429000e04f5200ce
:100e940019003a005544800084c0b300844a7800a5
:100ea40054448000b58b20001502980055448000fe
:100eb400c4c0b30094429800564480005444800057
:100ec4009442900004c8b30004c272001443980012
:100ed4008544800044c0b300944298008644800056
:100ee400844480009442900004c8b30004c2720099
:100ef400144398002c0037002e4290000482fb001b
:100f040004024200840278003e4290000482fb0006
:100f1400048242004322dd008402780004a0200001
:100f2400048f42001e027800144290000424a000a2
:100f34009e027800944298001e0278009442900029
:100f440004c8b30004c272009e0278009442980060
:100f54002e4290000482fb000402420084027800c6
:100f64003e4290000482fb00048242004322dd00e2
:100f7400e402420004a02000048f42001e02780014
:100f8400144290000424a0009e0278009442980029
:100f94001e0278009442900004c8b30004c2720098
:100fa4009e027800944298000080fa000000060037
:100fb4000200fa00004f7800a524800004022000fb
:100fc40004826200e00f52005b0032009e4278000f
:100fd4000582fb008402420004892000048242004e
:100fe400140078001e4378000682fb00840242004d
:100ff4000489200004824200140278001403be0015
:10100400040420000500200086007800070378000f
:10101400840378000502780087806000040263007e
:1010240005002000c022dd00040020000403be00ef
:10103400610ab80004037300858373000688be0048
:101044009e4278000582fb0084024200048920004d
:1010540004824200140078001e4378000682fb00dc
:1010640084024200048920000482420014027800b1
:101074001403be00040420000500200004026b00d9
:1010840085826b000488be009e4278000582fb00c6
:101094001e4378008682fb000583420005892000f8
:1010a40085024300950278000520a2000403420053
:1010b4000489200004024300050a78009e42780057
:1010c4000582fb008402420004892000048242005d
:1010d400940278001e4378000682fb000403420059
:1010e4000489200004024300140278001442900092
:1010f4000444b200944298009e4278000582fb00aa
:10110400840242000489200004824200140378000f
:101114009e4278000582fb0084024200048920007c
:1011240004824200140278009442900004c4b30084
:1011340004c26a00144398000080fa00000006000c
:101144000000fa000002eb00a42488000002eb0077
:10115400642488000002eb00244488000080fa0024
:10116400000006000000fa0024448000e00f520052
:1011740017003a000002eb00a42488000002eb00f0
:101184006424880024002000342588000002eb0039
:10119400442588008644a900f4092000842488009a
:1011a400f40920006424880082c4a8009ec0a8001a
:1011b400010037009404a800a424800061026200a6
:1011c400e00f5200fbff320014002000244488008a
:1011d4000080fa00000006000000fa00148b2000d2
:1011e400144278000404a200e04f52004000320090
:1011f40014c0b3000002fd00b1e8b7000002fd0016
:10120400248b2000144278000404a200e04f520012
:101214003700320014c0b3000002fd00b2e8b7008a
:101224000002fd005489200014427800e24f52006d
:101234000d003a00854480000042eb00844a7800a7
:101244008544800084c4b30094429800864480009e
:10125400844480009442900004c8b30004c2720025
:101264001443980022003700548920001442780067
:10127400e14f52001e003a000042eb0004007800e7
:10128400aae8b7004544800084c0b300844a7800cb
:1012940044448000b58b200015029800454480002a
:1012a40044c0b30094429800464480004444800003
:1012b4009442900004c8b30004c27200144398001e
:1012c40014c0b30004007800aae8b70055448000b5
:1012d40084c0b300844a780054448000b58b200055
:1012e400150298005544800004c8b3009442980045
:1012f4000080fa00000006000000fa000042eb0043
:101304000002fd00b3e8b7000002fd000042eb005c
:101314000002fd00b4e8b7000002fd00548920007b
:1013240014427800e24f520010003a005544800005
:1013340084c0b300844a780054448000358c200073
:10134400150298005544800084c4b3009442980068
:1013540056448000544480009442900004c8b30072
:1013640004c272001443980026003700148c200035
:10137400144278008482fb00248c200014427800fc
:101384000482fb004822dd00050378000403730097
:101394000602780084027800d4448000848f5200ce
:1013a4000b003100148c2000144278008482fb006e
:1013b400248c2000144278000482fb004822dd00c3
:1013c400050378000403730006027800d4448800ff
:1013d400b600070084448000358c20001502980074
:1013e4008544800084c4b3009442980086448000fd
:1013f400844480009442900004c8b30004c2720084
:10140400144398000080fa00000006000400fa006b
:10141400204798003147980004a02000040f78006a
:101424002e4290000482fb000402420084027800f1
:101434003e4290000482fb00048242004322dd000d
:101444001e0f42009e0278001502780004f0a100ed
:10145400840a78003e429000e04f520007003a00b0
:101464002e4290000482fb0084024200c4882000c3
:10147400048242001e0a7800060037002e429000c3
:101484000482fb008402420004892000048242009a
:101494001e0a78009e0278001502780004e0a1007c
:1014a400840a78001e027800e402420015027800e3
:1014b40004e0a000840a78000080fa00000006001e
:1014c4000000fa0094a4a900c54480000408200088
:1014d40004826200e00f520032003a00e5892000e5
:1014e4009542780004c8b30004c26200e04f520081
:1014f4001300320024c0b3000002fd0095e8b700d9
:101504000002fd00448b2000144278000404a20071
:10151400e04f52000100320077ff07000042eb0069
:101524000002fd00b2e8b7000002fd000042eb003b
:101534000002fd00b1e8b7000002fd0059003700c9
:101544005544800084c0b300844a78005444800029
:10155400b58b20001502980055448000c4c0b30028
:101564009442980056448000544480009442900071
:1015740004c8b30004c27200144398008544800078
:1015840044c0b300944298008644800084448000a0
:101594009442900004c8b30004c27200144398003b
:1015a40040003700b58b20009542780004c8b30092
:1015b40004c26200e04f52001900320014c0b300ac
:1015c4000002fd0095e8b7000002fd00348b200006
:1015d400144278000404a200e04f520001003200db
:1015e40045ff07000042eb000002fd00b2e8b7002f
:1015f4000002fd000042eb000002fd00b1e8b7006c
:101604000002fd00048b2000144278000404a200b0
:10161400e04f520023003200effe070021003700a4
:1016240024c0b3000002fd0095e8b7000002fd00ed
:101634005544800084c0b300844a78005444800038
:10164400b58b2000150298005544800044c0b300b7
:101654009442980056448000544480009442900080
:1016640004c8b30004c27200144398000042eb00a3
:101674000002fd00b2e8b7000002fd000042eb00ea
:101684000002fd00b1e8b7000002fd00048b200059
:10169400144278000404a200e04f5200010032001a
:1016a400cdfe07000080fa00000006000200fa00e8
:1016b40084c0b300044f7800d4448000e70f520084
:1016c40013003e00d4448000044f78004489200075
:1016d40014427800e04f520005003a0014c0b300f1
:1016e4000002fd0094e8b7000002fd000800370086
:1016f4004489200014427800e14f520004003a006b
:1017040024c0b3000002fd0094e8b7000002fd000d
:10171400d54480001e4378000682fb0004825200f8
:10172400d4448800844480001e4a7800348c20000d
:1017340024458800c444800061026200e00f520026
:1017440017003a000900370026458000b5448000a0
:1017540015427800044b78000602e800244588000e
:101764000502e800b44488001e4fe9001e427800d8
:10177400e04f5200f4ff3a000c0037002645800089
:10178400b544800015427800044b78000602e80056
:10179400244588000502e800b44488001e4fe9008f
:1017a4001e427800e04f5200f4ff3a000080fa0035
:1017b400000006000200fa0044448000144f780040
:1017c4001e4278008482fb00f489200014427800d1
:1017d4000483fb00048a2000144278000482fb0086
:1017e4004822dd00860378008483730007027800b2
:1017f400848f52000b003600f489200014427800d4
:101804008482fb00048a2000144278000482fb00d6
:101814004822dd0005037800040373000602780003
:10182400044f7800f4892000144278008482fb007d
:10183400048a2000144278000482fb004822dd0060
:10184400850378008483730007027800840278009b
:101854001e4378000682fb0084825200f40f2000ad
:1018640004836200f489200014427800604262001c
:10187400064272000002fd009fe8b7000002fd006e
:10188400c82ade00048a2000144278006042620004
:10189400054272000002fd00a0e8b7000002fd004e
:1018a4000042eb001447980026003700c48920004a
:1018b400144278008482fb00d4892000144278000a
:1018c4000482fb004822dd008503780084837300d2
:1018d40007027800840278001e4290000483fb0013
:1018e400348c20000402430014427800844a7800b7
:1018f4008502e800f40f200004836200c4892000fc
:101904001442780060426200064272000002fd0048
:101914009ce8b7000002fd00c82ade00d48920003c
:101924001442780060426200054272000002fd0029
:101934009de8b7000002fd001e4290000442e8004a
:10194400144798001e4290009e4f5200d7ff390062
:10195400f4892000144278008482fb00048a200069
:10196400144278000482fb004822dd00050378005d
:101974000403730006027800e00f520020003200d6
:101984005544800084c0b300844a780054448000e5
:10199400358c20001502980044448000940278009d
:1019a4000400240004826200e00f52000a003a009e
:1019b4005544800084c4b300944298005644800087
:1019c400544480009442900004c8b30004c27200de
:1019d40014439800370037005544800084c0b30096
:1019e40094429800564480005444800094429000ed
:1019f40004c8b30004c27200144398002d003700d9
:101a04005544800084c0b300844a78005444800064
:101a1400b58b2000150298005544800044c0b300e3
:101a240094429800564480005444800094429000ac
:101a340004c8b30004c2720014439800148a20003e
:101a4400144278008482fb00248a20001442780027
:101a54000482fb004822dd00850378008483730040
:101a640007027800e00f52000b003200148a2000b5
:101a7400144278008482fb00248a200014427800f7
:101a84000482fb004822dd00050378000403730090
:101a940006027800040001009ee8a900048b2000df
:101aa400144278000404a200e04f52000100320006
:101ab400c9fd07000080fa00000006000200fa00d9
:101ac40098e8a800220020008000eb00c04a200013
:101ad400a0fa0700020220008000eb0000a0200012
:101ae4009cfa07009424a8000042eb00044f7800fd
:101af4000d0037001e4278008482fb00b48a200067
:101b0400848242000042eb00844a78001e4278003e
:101b14008482fb00d48a2000848242000042eb00cd
:101b2400844a78001e4fe8001e427800e14f5200bc
:101b3400f0ff3600120020008000eb0070882000c7
:101b440084fa07009424a90084a020008444880017
:101b540004a0200044448800444480005444880085
:101b6400d48b2000144278000002fd0086e8b70000
:101b74000002fd006488200014427800e04f520007
:101b840003003a00040120002444880006003700c2
:101b940012002000618820001000200005080700c2
:101ba40004022000244488000080fa00000006009b
:101bb4000000fa00b58b20009542780004c8b300f9
:101bc40084cf52004c003a0004ccb3000002fd0064
:101bd40098e8b7000002fd00e48b2000144278006e
:101be4000482fb00e20f520009003200e30f5200ae
:101bf40026003200e10f52003b003a00a42b2800db
:101c0400b444880024012000d44488003a003700fa
:101c1400d48b200014427800e04f520016003a00a2
:101c2400d48b2000144278000482fb00040242009a
:101c340084027800a4372800048242001402780049
:101c4400b4448800b44480000482e800144278005c
:101c54000002fd009ae8b7000002fd00b4448000d1
:101c640063024200144278000002fd009be8b700c2
:101c74000002fd00200037000042eb000002fd00de
:101c840098e8b7000002fd001b003700d48b200049
:101c940014427800e24f52000e003e00d48b200024
:101ca400144278000482fb0004024200840278009b
:101cb400c43728000482420014027800b444880027
:101cc400b4448000144278000482fb00d4448800a9
:101cd400090037000042eb000002fd0098e8b7005d
:101ce4000002fd00040037000042eb00040078000d
:101cf40098e8b700000000000080fa000000060029
:101d04000200fa000042eb000002fd00c3e8b70045
:101d14000002fd000042eb000002fd00c4e8b70031
:101d24000002fd00b48b2000144278007f42620060
:101d34000482fb00e10f520010003200e20f520057
:101d440010003200e00f52003c003a0098e8a8006e
:101d5400648a200014427800e04f520032003200be
:101d6400348c2000144278000414a0000002fd000a
:101d7400c3e8b7000002fd003000370098e8a8006f
:101d84002e00370098e8a800f58b200095427800d3
:101d940004c8b30004c26200e04f520009003a00d4
:101da400f48b2000144278006f4262000482fb002e
:101db40084024200c488200004824200140f780088
:101dc40008003700f48b2000144278006f42620050
:101dd4000482fb0084024200048920000482420041
:101de400140f78001e027800940278000400280082
:101df40004826200e00f52000d0032001e027800df
:101e0400940278000440200004826200e00f520033
:101e14000900320014c0b3000002fd00c3e8b7009b
:101e24000002fd0005003700000000000300370039
:101e3400000000000100370000000000c5448000dd
:101e44000408200004826200e00f52000600320001
:101e5400348c2000b44488009808a80024c0b3003f
:101e6400040078009ae8b7000080fa000000060039
:101e74000000fa005425800062026200e00f520064
:101e840014003200444480009442900004c8b3001b
:101e940084cf52000e003a008444800094429000a3
:101ea40044c8b30084cf520009003a00454480007e
:101eb400c4c0b30094429800464480004444800067
:101ec4009442900004c8b30004c272001443980002
:101ed400aa24a90004082000542488000080fa00e1
:101ee400000006000000fa008284a800040120001b
:101ef4005424880014c0b30004007800a7e8b70095
:101f04000042eb0004007800bae8b7000001eb00df
:101f14008000eb0050072000260707000080fa002d
:101f2400000006000000fa000042eb000400780004
:101f3400a7e8b7000001eb008000eb004007200099
:101f44001c0707008284a9000401200004248800df
:101f54000042eb0004007800bae8b7000080fa0001
:101f6400000006000000fa00d4c2b3000002fd0025
:101f7400afe8b7000002fd00848a20001442780014
:101f84008482fb00b4ff2f0004826200e00f520041
:101f940020003a00848a2000144278000482fb0066
:101fa4004222de00044278000482fb00c222dd00eb
:101fb40004a0200004824200444488004444800079
:101fc40054448800544480000420a20054448800ef
:101fd400444480009402780004c023008482620098
:101fe40004402300848f520008003a0044448000d7
:101ff400140290008200200084007800b08b20003e
:102004004df907000d0007000a00370057000700cc
:1020140008003700848a2000144278008482fb0080
:10202400b4ff2f0004826200e80f520001003a005e
:10203400730007000080fa00000006000000fa00a8
:102044000042eb000002fd0094e8b7000002fd002e
:102054000042eb000002fd00b0e8b7000002fd0002
:102064000042eb000002fd00b3e8b7000002fd00ef
:102074000042eb000002fd00b4e8b7000002fd00de
:102084000042eb000002fd00aae8b7000002fd00d8
:102094000042eb000002fd0095e8b7000002fd00dd
:1020a4008544800084448000144290000474a1009c
:1020b40094429800844480000420a2008444880050
:1020c4008544800084448000144290000474a1007c
:1020d40094429800844480000420a2008444880030
:1020e4005544800054448000144290000474a100bc
:1020f400944298000042eb000002fd0098e8b7000b
:102104000002fd000002eb00d44488000042eb0012
:102114000002fd009ee8b7000002fd00f4892000e3
:1021240014427800604262000002fd009fe8b7009c
:102134000002fd00048a200014427800604262001c
:102144000002fd00a0e8b7000002fd0096000700b1
:102154000001eb008000eb00300020009506070032
:10216400d7fc07000080fa00000006000000fa0017
:102174005489200014427800e24f520002003a00d1
:102184008cfd07001c0037000042eb000002fd003c
:1021940095e8b7000002fd00a48a200014427800ec
:1021a4000404a200e04f52001000320055448000a5
:1021b40084c0b300844a780054448000b58b200066
:1021c4001502980055448000c4c0b300944298009e
:1021d40056448000544480009442900004c8b300e4
:1021e40004c2720014439800030037000042eb005d
:1021f40004007800aae8b7000080fa000000060096
:102204000200fa0084448000140278004e22de00aa
:1022140061426200044f7800844480000420a200dc
:102224008444880024448000e80f52000e003a00e1
:10223400d48b2000144278008482fb00f407200031
:1022440004826200b4248800b4248000e00f5200a9
:1022540003003200040120002444880002003700f7
:10226400440020002444880054892000144278004b
:10227400e14f520029003a0084448000358c20004c
:102284001502980009fd07004489200014427800d3
:10229400e24f52000a003a008544800044c0b30073
:1022a40094429800864480008444800094429000c4
:1022b40004c8b30004c27200144398003800370005
:1022c4001e427800e04f52000a003a008544800024
:1022d40084c4b300944298008644800084448000ff
:1022e4009442900004c8b30004c2720014439800de
:1022f4002b0037008544800084c0b30094429800ca
:1023040086448000844480009442900004c8b30052
:1023140004c272001443980021003700e5892000ac
:102324009542780004c8b30004c26200e04f520032
:1023340018003200148a2000144278008482fb00c2
:10234400248a2000144278000482fb004822dd0025
:10235400050378000403730006027800e00f5200be
:102364000b003200148a2000144278008482fb009f
:10237400248a2000144278000482fb004822dd00f5
:1023840005037800040373000602780004000100ca
:102394009ee8a9000042eb000400780095e8b7002d
:1023a4000080fa00000006000000fa00b48b200050
:1023b400144278000446b200e04f520047003a004d
:1023c400c48b2000144278000482fb00cfa2de00fc
:1023d400b600200007002000860f5200878f5a00a5
:1023e40040003e00046001001c0037001d0037005f
:1023f4003e0037001b0037003c0037000600370062
:1024040009003700300037000b00370008003700a0
:10241400160037002200370098e8a8008400200046
:102424002444880032003700e1fd07003000370003
:10243400a2fd07002e00370064882000b444880001
:102444009808a80014c0b3000002fd009ae8b70081
:102454000002fd0098e8a8002500370028fe0700c8
:10246400230037002400070021003700f48b2000ec
:10247400144278008482fb007488200004824200a5
:10248400b44488009808a80014c0b3000002fd00fa
:102494009ae8b7000002fd0098e8a800140037008d
:1024a40098e8a800f48b2000144278000483fb0011
:1024b400d48b2000144278007588200085024300e4
:1024c400844a78000a0037000001eb008000eb002a
:1024d40020002000b70507000500370000000000b9
:1024e4000300370000000000010037000000000076
:1024f4000080fa00000006000600fa00d48b2000d9
:1025040014427800e14f520013003a00b48b2000cb
:10251400144278007f426200e04f52000e003a00fd
:1025240098e8a800c48b200014427800e34f5200be
:1025340005003a0014c0b3000002fd00a6e8b7008d
:102544000002fd00040037000042eb000002fd0021
:10255400a6e8b7000002fd00d48b200014427800e6
:10256400e04f5200f2003a00b48b2000144278008d
:102574007f426200e24f5200ed003a00f48b2000eb
:10258400144278006f426200e04f5200e8003200cb
:10259400f48b2000144278006f4262000482fb0036
:1025a400e10f5200e2003c002544800004022000b8
:1025b400848f5200de003a0098e8a800f58b2000d2
:1025c4009542780004c8b30004c26200e04f520090
:1025d40011003a00f48b2000144278006f4262002c
:1025e4000482fb0084024200c4882000048242006a
:1025f400140f7800f48b2000144278006f426200bc
:102604008482fb00d48a20000482420014427800b1
:102614004447980010003700f48b200014427800df
:102624006f4262000482fb0084024200048920009d
:1026340004824200140f7800f48b200014427800c6
:102644006f4262008482fb00b48a2000048242004c
:1026540014427800444798004e4290006142620060
:10266400e04f520005003a009e027800b4ff2f00ac
:1026740004826200040f7800030037001e02780011
:102684000420a000040f7800f58b20009542780008
:1026940004c8b30004c26200e04f52000a003a00ca
:1026a400f48b2000144278006f4262000482fb0025
:1026b4009e02780004034200c48820000402430000
:1026c400050a780009003700f48b200014427800d2
:1026d4006f4262000482fb009e0278000403420001
:1026e4000489200004024300050a7800c48b2000fa
:1026f40014427800e34f52002b003a001e02780087
:10270400940278000400280004826200e00f520062
:1027140019003200f58b20009542780004c8b300fc
:1027240004c26200e04f52000a003a00f48b200019
:10273400144278006f4262008482fb00d48a200035
:1027440084824200154278000410a000844a780074
:1027540009003700f48b2000144278006f426200b5
:102764008482fb00b48a20008482420015427800ef
:102774000410a000844a78001e02780014429000dd
:102784000424a0009e027800944298001e0278005f
:102794009442900004c8b30004c272009e02780000
:1027a40094429800620037001e0278000420a200c0
:1027b400040f78001e0278009402780004002800b8
:1027c40004826200e00f5200100032001e02780002
:1027d400144290000474a1009e0278009442980070
:1027e4001e0278009442900004c4b30004c2720034
:1027f4009e02780094429800220020009e007800f7
:1028040050002000eb040700060037001e02780089
:102814009442900004c4b30004c272009e02780083
:10282400944298001e0278000420a200040f78004d
:102834004e42900062426200e04f520006003a00ad
:102844001e027800940278000400280004826200ca
:10285400e00f520023003200f58b200095427800ef
:1028640004c8b30004c26200e04f52000a003a00f8
:10287400f48b2000144278006f4262008482fb00d3
:10288400d48a200084824200154278000410a100fa
:10289400844a780009003700f48b20001442780041
:1028a4006f4262008482fb00b48a2000848242006a
:1028b400154278000410a100844a78001e027800b2
:1028c40014429000b443b2009e02780094429800ef
:1028d400220020009e00780050002000b50407006c
:1028e400050037001e02780014429000b443b20081
:1028f4009e02780094429800a54a2000f48b2000a0
:10290400144278006f4262000482fb000402420019
:1029140004824200140798001e029000944278003a
:10292400d4cfb30004c262009e029000844a7800af
:102934000080fa00000006000000fa00b4458000a0
:10294400c545800061024200e0824a00b445880027
:10295400c5458800748a2000144278000404a2004b
:10296400e04f52000d003200a48b20001442780086
:102974000442e8000002fd00bae8b7000002fd00ce
:10298400a48b200014427800e04f520003003a0068
:1029940000c2eb0004007800bae8b7000080fa0037
:1029a400000006000400fa00b4458000c54580001c
:1029b400048fbe00b4458000c54580001e03be00e0
:1029c400840f5300858f5b00f7ff3a001e02be00a0
:1029d4000400be000080fa00000006000000fa00b7
:1029e400b4000700648a200014427800e04f5200cb
:1029f40002003200748a2000144278000040fe0075
:102a0400552480000402200004826200e00f52007a
:102a140002003a0010c0b30045000700e1000700bf
:102a240014c0b300044078000080fa0000000600df
:102a34000000fa00648a200014427800e04f52003b
:102a440037003200748a200014427800e04f5200ac
:102a5400330032004424800062026200e00f52001e
:102a6400010032008824a900790007000404200032
:102a740004248800000000000524800004042000d1
:102a840004826200e00f5200fbff320004042000c5
:102a940004248800000000000524800004042000b1
:102aa40004826200e00f5200fbff320004042000a5
:102ab4000424880000000000052480000404200091
:102ac40004826200e00f5200fbff32009444a8002d
:102ad4000404200004248800000000000524800071
:102ae4000404200004826200e00f5200fbff320065
:102af4000404200004248800000000000524800051
:102b04000404200004826200e00f5200fbff320044
:102b14009444a9005f00070014c0b300010037000b
:102b24000042eb00044078000080fa000000060038
:102b34000400fa00204798004424800061026200e7
:102b4400e00f52000c003200442480006202620054
:102b5400e00f520008003a00a48b200014427800d1
:102b6400e34f520004003600242480004322de0098
:102b740061426200330037002e429000e04f520061
:102b84001d0032008824a9008804a8003000070032
:102b94000042eb00044f78000900370004042000d1
:102ba40004248800000000000524800004042000a0
:102bb40004826200e00f5200fbff32001e4fe80067
:102bc4001e427800e44f5200f4ff36000042eb004e
:102bd400144798002424800068026200e00f520029
:102be4000200320014c0b300144798002900070003
:102bf4001e429000130037004424800061026200ea
:102c0400e00f520002003a0000c2eb000d00370052
:102c14004424800062026200e00f520002003a0085
:102c2400e4cfb30007003700a48b200014427800df
:102c3400e34f520002003e00d4cfb300010037003e
:102c4400c4cfb300044078000080fa0000000600fe
:102c54000000fa000042eb000002fd00e0e8b700cb
:102c64000002fd001000fc00f504800004042000b4
:102c740004826200e00f52000300320014c0b3006b
:102c840004007800e0e8b7009ec0a9000080fa00c4
:102c9400000006000000fa00048e200014427800b0
:102ca400e04f5200010032009ec0a8000080fa00ec
:102cb400000006000400fa001e00fc00150280005b
:102cc400040e20000482620064468800140280001e
:102cd4000450a0000460a0000470a0001402880046
:102ce40044092000140798000002eb00040f780048
:102cf4000e0037001e029000940278001e02780035
:102d040004034200e48c200004024300050a780016
:102d14001e0290008002eb00050a78001e0290005b
:102d24000482e800140798001e0fe8001e027800d1
:102d3400e50f5200efff360064248000d44688007b
:102d44000002eb006424880014248000e446880018
:102d54000002eb0014248800740680004822de0080
:102d6400674262000482fb00f446880004012000ec
:102d74000424880004022000542488008ec0a90082
:102d84008284a800740680000480a1000490a1003d
:102d940004a0a000740688009ec0a8000080fa0069
:102da400000006000400fa004409200014079800fb
:102db4000002eb00040f78000b0037001e027800bd
:102dc40084024200e48c20000482420094027800d1
:102dd4001e029000050a78001e0290000482e8009a
:102de400140798001e0fe8001e027800e50f520039
:102df400f2ff3600d446800064248800e446800054
:102e040014248800f446800004427800674262007b
:102e14000482fb00670262004822dd00760680001f
:102e2400f58f2f0085026300050272007406880086
:102e340015028000f4f12f00848262006446800051
:102e4400050272006446880064468000140288000b
:102e54000080fa00000006000000fa000002eb0007
:102e640014448800d1c1b30010c0b30092f7070026
:102e740003c4b300028020008040eb0010c0b30004
:102e8400aaf7070000027800044488000080fa00d2
:102e9400000006000800fa0024448000ff0f5200de
:102ea400c50036004424800062026200e00f520034
:102eb400c3003a0004448000e00f520006003200d0
:102ec4000444800094027800040028000482620014
:102ed400e00f5200bb003a00048020001442780046
:102ee4000482fb0005082000850f52000700320011
:102ef40015082000850f52002700320075032000ba
:102f0400850f520080003200a30037001480200097
:102f1400144278000482fb006102620004427800db
:102f2400e04f52000300320010002000a700070009
:102f34000200370010002000be00070014802000ab
:102f4400144278000482fb0062026200e00f520027
:102f540003003200200020009c000700020037001c
:102f640020002000b30007001480200014427800e1
:102f74000482fb0064026200e00f5200030032008e
:102f8400300020009100070083003700300020004b
:102f9400a80007008000370014448000e00f5200ae
:102fa40006003200144480009402780004002800d3
:102fb40004826200e00f520074003a002480200072
:102fc400144278000482fb00c822dd001480200033
:102fd400144278000482fb0004824200040f78004b
:102fe40044802000144278000482fb00c822dd00e3
:102ff40034802000144278000482fb0004824200e2
:103004001407980064802000144278000482fb00b6
:10301400c822dd0054802000144278000482fb00a2
:1030240004824200240798002e0190009e00900024
:103034001e0078009202070014c8b3000400780050
:1030440040e8b7000042eb000400780041e8b70014
:10305400100020000b030700004278000404a200c3
:10306400e04f520008003200158420009542780099
:10307400e4cfb30004c262000002fd0041e8b700df
:103084000002fd000500370014842000144278007b
:103094000404a0000400780041e8b70020002000e8
:1030a400f8020700004278000404a200e04f520036
:1030b400080032002584200095427800d4cfb30064
:1030c40004c262000002fd0042e8b7000002fd00f5
:1030d4000500370014842000144278000414a00072
:1030e4000400780041e8b70003c4b3000284200060
:1030f40011c0b30010c0b3000cf707000002780041
:10310400144488002400370014448000e00f520067
:103114000600320014448000940278000400280061
:1031240004826200e00f52001a003a0050002000ae
:1031340092010700000278003407980074c3b300ba
:103144000400780040e8b7003e0290000442780092
:103154000400780041e8b7003e0290004822de00f7
:10316400044278000400780042e8b70003c4b300c6
:103174000284200011c0b30010c0b300ebf60700b6
:1031840000027800144488000300370000000000a7
:10319400010037000000000003c4b30002802000d7
:1031a4008040eb0010c0b300e0f607000002780096
:1031b40004448800030037000000000001003700c9
:1031c400000000000080fa00000006000200fa007f
:1031d400000f78001e027800050020004600200041
:1031e40007002000860f5200878f5a000f003e0010
:1031f40004600100040037000500370006003700b2
:103204000700370008003700cce2a80007003700a9
:10321400cd02a80005003700cd22a8000300370026
:10322400cda2a80001003700000000000080fa00d1
:10323400000006000200fa00000f78001e02780069
:10324400050020004600200007002000860f5200e1
:10325400878f5a000f003e0004600100040037000d
:103264000500370006003700070037000800370064
:10327400cce2a90007003700cd02a9000500370001
:10328400cd22a90003003700cda2a9000100370018
:10329400000000000080fa00000006000200fa00ae
:1032a400000f78001e027800050020004600200070
:1032b40007002000860f5200878f5a003f003e000f
:1032c4000460010004003700110037001e003700bd
:1032d4002b00370038003700641680004722de00d8
:1032e400614262000404a200614262000482fb00a5
:1032f400610262004722dd0066168000f5f72f00a8
:103304008502630005027200641688002b003700f2
:10331400641680004822de00614262000404a200b8
:10332400614262000482fb00610262004822dd0007
:1033340066168000f5ef2f00850263000502720017
:10334400641688001d003700641680004922de00e0
:10335400614262000404a200614262000482fb0034
:10336400610262004922dd0066168000f5df2f004d
:103374008502630005027200641688000f0037009e
:10338400641680004d22de00614262000404a20043
:10339400614262000482fb00610262004d22dd0092
:1033a40066168000f5ff2d00850263000502720099
:1033b4006416880001003700000000000080fa0055
:1033c400000006000200fa00000f78001e027800d8
:1033d400050020004600200007002000860f520050
:1033e400878f5a002c003e0004600100040037005f
:1033f4000c003700140037001c003700240037008d
:1034040065168000040820000482620004f0a7000e
:103414000402ea000402ea004f22de0004427800bb
:103424001e0037006516800004102000048262002c
:1034340004f0a7000402ea000402ea004f22de00be
:10344400044278001500370065168000042020002f
:103454000482620004f0a7000402ea000402ea0005
:103464004f22de00044278000c003700651680000d
:10347400040022000482620004f0a7000402ea00af
:103484000402ea004f22de00044278000300370001
:103494000042eb00010037000042eb0004407800da
:1034a4000080fa00000006000200fa00000f780015
:1034b4001e027800050020004600200007002000be
:1034c400860f5200878f5a000f003e0004600100ef
:1034d40004003700050037000600370007003700f6
:1034e40008003700c8e2a90007003700c902a90094
:1034f40005003700c922a90003003700c9a2a900aa
:1035040001003700000000000080fa0000000600ff
:103514000000fa00b48b2000144278007f4262005d
:10352400e14f520074003a00f48b200014427800fa
:10353400e04f520072003a00c48b2000144278001d
:10354400e64f520025003a00e48b20001442780034
:103554000482fb0025022000850f52001300320074
:1035640035022000850f5200190032001502200098
:10357400850f520019003a00648820001442780034
:10358400e14f520014003a00e42d2800b4448800ae
:1035940094002000d444880004ccb3000002fd0051
:1035a40098e8b7000002fd000c003700c43528007d
:1035b400b4448800d4012000d444880004ccb3006f
:1035c4000002fd0098e8b7000002fd000300370088
:1035d400000000000100370000000000b48b200050
:1035e4001442780006c6b3008642620004c2b300e7
:1035f40084cf520044003a00c48b20001442780067
:103604000482fb006123b9000082eb008082eb009e
:103614000602420087824a00a6002000070020001c
:10362400860f5200878f5a0038003e000460010064
:1036340036003700090037001b003700330037001d
:103644003200370031003700300037002f003700d8
:103654002e0037000a0037001c003700248e20009b
:10366400b444880014002000d444880014ccb3006f
:103674000002fd0098e8b7000002fd0023003700b7
:1036840004c8b3000002fd0098e8b7000002fd0082
:10369400e48b2000144278000002fd00e2e8b70049
:1036a4000002fd0019003700348e2000b444880065
:1036b40014002000d444880014c8b3000002fd00a4
:1036c40098e8b7000002fd001000370004c8b300fa
:1036d4000002fd0098e8b7000002fd00d48b200032
:1036e400144278000002fd00e3e8b7000002fd0088
:1036f4000000000005003700000000000300370050
:103704000000000001003700000000000080fa0003
:10371400000006000400fa00100798001e02900042
:10372400e50f52000d003a001e0090001300070040
:1037340000027800a5002000110009000582d800cd
:1037440000027800044f780044c6b3009e4278001b
:1037540084cf520003003e000400370000c2eb0097
:103764000300370044c6b300044f78001e427800bb
:10377400044078000080fa00000006000400fa000b
:10378400100798001e029000e50f520006003a0050
:103794001e029000441988002023a8000002eb00b8
:1037a400040f7800040037000082eb001600370095
:1037b400000000001e0fe800743e20009e02780006
:1037c400848f5200faff36002023a9000002eb0088
:1037d400040f780002003700000000001e0fe8000c
:1037e400743e20009e027800848f5200faff360057
:1037f400000000000419800061026200e00f520022
:10380400fcff320004188000040078000080fa00f5
:10381400000006000200fa00000f78001e02780083
:10382400e50f520003003a002ca3a90014c0b30012
:10383400010037000042eb00044078000080fa00e9
:10384400000006000200fa00000f78001e02780053
:10385400e00f520028003a000002eb00041988002f
:103864000002eb00141988000002eb002419880000
:103874001419800004d0a10004e0a10004f0a10008
:1038840014198800f4c3b3000002fd0024e3b70058
:103894000002fd0025198000f40f2e0084826200ce
:1038a40004002100050272002419880025e3a90000
:1038b400041980000450a1000460a1000470a10058
:1038c40004198800041980000480a1000490a10058
:1038d40004198800141980000420a1000430a100f8
:1038e4000440a1000450a1001419880021e3a80099
:1038f40014c0b300010037000042eb00044078001c
:103904000080fa00000006000000fa00cc02a900c2
:10391400cc22a900cc42a900c802a900c822a9004f
:10392400c842a9000536800004fe2f00048262000c
:103934002401b3000436880005368000f40f2e00fd
:10394400848262000430210005027200043688007b
:103954001536800004fe2f00048262004401b30087
:10396400143688000002eb00840c88000002eb008f
:10397400940c88000002eb00b40c8800f43f200093
:10398400a40c8800940c8000f401b300940c88000b
:1039940092e1a900840c800004a0a00004b0a0005f
:1039a40004c0a000840c88009061a800840c8000ee
:1039b4000400a1000410a0000420a000840c8800ce
:1039c4000002eb00d40c88000002eb00e40c880039
:1039d4000002eb00040d8800f43f2000f40c880082
:1039e400e40c8000f401b300e40c88009ce1a9001d
:1039f400d40c800004a0a00004b0a00004c0a00067
:103a0400d40c88009a61a800d40c80000400a100a2
:103a14000410a0000420a000d40c88000002eb00d5
:103a2400240d88000002eb00340d88000002eb0036
:103a3400540d8800f43f2000440d8800340d8000ac
:103a4400f401b300340d8800a6e1a900240d800020
:103a540004a0a00004b0a00004c0a000240d8800ad
:103a6400a461a800240d80000400a1000410a0009b
:103a74000420a000240d88000080fa000000060045
:103a84000600fa00000f780011079800220798003a
:103a9400f43f20001e026200b40c88009e029000d5
:103aa400f43f200004826200040d8800ae029000fe
:103ab400f43f200004826200540d88000080fa0064
:103ac400000006000000fa00442480006202620044
:103ad400e00f5200030032000000eb00d5fd0700a8
:103ae400320037002544800004022000848f5200f5
:103af40014003a0024478000e10f520003003a000a
:103b04000000eb00b1fd07002500370025478000c9
:103b1400b4042000848f520003003a000000eb003c
:103b2400c4fd07001e0037002547800064092000fb
:103b3400848f5200170036000002eb0024478800ef
:103b44001700370024478000e10f520003003a00b9
:103b54000000eb009dfd07001100370025478000a1
:103b640024032000848f520003003a000000eb007d
:103b7400b0fd07000a00370025478000643b2000a1
:103b8400848f5200050036000002eb0024478800b1
:103b940003003700000000000100370000000000af
:103ba400244780000402e800244788000080fa00cb
:103bb400000006000600fa00000f780011079800c4
:103bc400220798001e02780025072000850f520066
:103bd4002500320025072000850f52000a003c0012
:103be400e20f520022003200e20f520003003c00b8
:103bf400e10f5200180032001e003700e30f52009c
:103c0400170032001b00370045072000850f5200c3
:103c14000d00320045072000850f520004003500d6
:103c240055072000850f52000300320011003700b1
:103c3400a4ff07000f003700a2ff070010002000b8
:103c4400410007000b0037009eff07002000200002
:103c54003d000700070037007ffc07000500370020
:103c64002bfe0700030037000000000001003700ae
:103c74000000000014c0b300044078000080fa0083
:103c8400000006000200fa00000f78001e0278000f
:103c9400e10f520005003200e10f52001300390019
:103ca400e20f52000900320012003700141680009f
:103cb4006402620004f0a7000402ea000402e900be
:103cc4004f22de00044278000b00370014168000f7
:103cd4006802620004f0a7000402ea000402e9009a
:103ce4004f22de0004427800030037000042eb005c
:103cf400010037000042eb00044078000080fa0025
:103d0400000006000200fa00000f78001e0278008e
:103d1400e10f520005003200e10f520007003900a4
:103d2400e20f52000300320005003700c042a80031
:103d340003003700c062a800010037000000000043
:103d44000080fa00000006000200fa00000f78006c
:103d54001e027800e10f520014003200e10f5200fd
:103d6400140031000000eb00cffd0700100020001c
:103d7400cdfd070020002000cbfd0700300020000f
:103d8400c9fd070010002000deff0700200020000e
:103d9400dcff07000000eb00aafe07005000200033
:103da4009cfe0700d8fe0700030037000bfb07004a
:103db40001003700000000000080fa000000060047
:103dc4003600f800809fbe00829fbe00849fbe0024
:103dd400869fbe003400f80000002000a001880087
:103de4000000fa00e1f207000080fa003400f90054
:103df4004f03be004f02be004f01be004f00be0085
:083e04003600f9000040060041
:020000040000fa
:103e0c00840800004800000000000000000a0000c8
:103e1c002000000000000000e2080000020000008a
:103e2c0000000000cc08000016000000000000009c
:103e3c00000800008400000000000000e4080000fe
:0c3e4c0002000000000000000000000068
:020000040000fa
:103e58000200fa0004022000243a880004712200bb
:103e6800040f7800010037001e0fe9001e027800d9
:103e7800e00f5200fcff3a000000eb00b1ff070022
:103e88001ef20700b6f4070001fc0700feff37002a
:020000040000fa
:020000040001f9
:0457f00033ff000083
:020000040000fa
:020000040001f9
:0457f400c0fc0000f5
:020000040000fa
:020000040001f9
:0457f8008f19000005
:020000040000fa
:020000040001f9
:0457fc00603d00000c
:00000001FF
